{
    "address": "0xe7f1725E7734CE288F8367e1Bb143E90bb3F0512",
    "abi": [
        {
            "inputs": [
                {
                    "internalType": "address",
                    "name": "priceFeedAddress",
                    "type": "address"
                }
            ],
            "stateMutability": "nonpayable",
            "type": "constructor"
        },
        {
            "inputs": [],
            "name": "FundMe__NotOwner",
            "type": "error"
        },
        {
            "stateMutability": "payable",
            "type": "fallback"
        },
        {
            "inputs": [],
            "name": "MINIMUM_USD",
            "outputs": [
                {
                    "internalType": "uint256",
                    "name": "",
                    "type": "uint256"
                }
            ],
            "stateMutability": "view",
            "type": "function"
        },
        {
            "inputs": [
                {
                    "internalType": "address",
                    "name": "",
                    "type": "address"
                }
            ],
            "name": "addressToAmountFunders",
            "outputs": [
                {
                    "internalType": "uint256",
                    "name": "",
                    "type": "uint256"
                }
            ],
            "stateMutability": "view",
            "type": "function"
        },
        {
            "inputs": [],
            "name": "cheaperWithdraw",
            "outputs": [],
            "stateMutability": "nonpayable",
            "type": "function"
        },
        {
            "inputs": [],
            "name": "fund",
            "outputs": [],
            "stateMutability": "payable",
            "type": "function"
        },
        {
            "inputs": [
                {
                    "internalType": "uint256",
                    "name": "",
                    "type": "uint256"
                }
            ],
            "name": "funders",
            "outputs": [
                {
                    "internalType": "address",
                    "name": "",
                    "type": "address"
                }
            ],
            "stateMutability": "view",
            "type": "function"
        },
        {
            "inputs": [],
            "name": "i_owner",
            "outputs": [
                {
                    "internalType": "address",
                    "name": "",
                    "type": "address"
                }
            ],
            "stateMutability": "view",
            "type": "function"
        },
        {
            "inputs": [],
            "name": "priceFeed",
            "outputs": [
                {
                    "internalType": "contract AggregatorV3Interface",
                    "name": "",
                    "type": "address"
                }
            ],
            "stateMutability": "view",
            "type": "function"
        },
        {
            "inputs": [],
            "name": "withdraw",
            "outputs": [],
            "stateMutability": "nonpayable",
            "type": "function"
        },
        {
            "stateMutability": "payable",
            "type": "receive"
        }
    ],
    "transactionHash": "0xcdfa1a77e29595a4b08d928636d0689a4f667716aee7401f65fd65b70e11668c",
    "args": [
        "0x5FbDB2315678afecb367f032d93F642f64180aa3"
    ],
    "numDeployments": 1,
    "solcInputHash": "145eadf971b5a6aef215e997ea15016b",
    "bytecode": "0x60a06040523480156200001157600080fd5b506040516200124938038062001249833981810160405281019062000037919062000120565b3373ffffffffffffffffffffffffffffffffffffffff1660808173ffffffffffffffffffffffffffffffffffffffff1660601b8152505080600260006101000a81548173ffffffffffffffffffffffffffffffffffffffff021916908373ffffffffffffffffffffffffffffffffffffffff1602179055505062000152565b600080fd5b600073ffffffffffffffffffffffffffffffffffffffff82169050919050565b6000620000e882620000bb565b9050919050565b620000fa81620000db565b81146200010657600080fd5b50565b6000815190506200011a81620000ef565b92915050565b600060208284031215620001395762000138620000b6565b5b6000620001498482850162000109565b91505092915050565b60805160601c6110ca6200017f600039600081816102f501528181610579015261081701526110ca6000f3fe60806040526004361061007f5760003560e01c8063b60d42881161004e578063b60d428814610142578063be2693f01461014c578063dba6335f14610163578063dc0d3dff1461018e5761008e565b80633ccfd60b146100985780636b69a592146100af578063741bef1a146100da578063ac3e43c0146101055761008e565b3661008e5761008c6101cb565b005b6100966101cb565b005b3480156100a457600080fd5b506100ad6102f3565b005b3480156100bb57600080fd5b506100c461052d565b6040516100d19190610a0e565b60405180910390f35b3480156100e657600080fd5b506100ef610539565b6040516100fc9190610aa8565b60405180910390f35b34801561011157600080fd5b5061012c60048036038101906101279190610b06565b61055f565b6040516101399190610a0e565b60405180910390f35b61014a6101cb565b005b34801561015857600080fd5b50610161610577565b005b34801561016f57600080fd5b50610178610815565b6040516101859190610b42565b60405180910390f35b34801561019a57600080fd5b506101b560048036038101906101b09190610b89565b610839565b6040516101c29190610b42565b60405180910390f35b674563918244f40000610209600260009054906101000a900473ffffffffffffffffffffffffffffffffffffffff163461087890919063ffffffff16565b101561024a576040517f08c379a000000000000000000000000000000000000000000000000000000000815260040161024190610c13565b60405180910390fd5b6000339080600181540180825580915050600190039060005260206000200160009091909190916101000a81548173ffffffffffffffffffffffffffffffffffffffff021916908373ffffffffffffffffffffffffffffffffffffffff16021790555034600160003373ffffffffffffffffffffffffffffffffffffffff1673ffffffffffffffffffffffffffffffffffffffff16815260200190815260200160002081905550565b7f000000000000000000000000000000000000000000000000000000000000000073ffffffffffffffffffffffffffffffffffffffff163373ffffffffffffffffffffffffffffffffffffffff1614610378576040517f579610db00000000000000000000000000000000000000000000000000000000815260040160405180910390fd5b60005b60008054905081101561041d576000600160008084815481106103a1576103a0610c33565b5b9060005260206000200160009054906101000a900473ffffffffffffffffffffffffffffffffffffffff1673ffffffffffffffffffffffffffffffffffffffff1673ffffffffffffffffffffffffffffffffffffffff16815260200190815260200160002081905550808061041590610c91565b91505061037b565b5060003373ffffffffffffffffffffffffffffffffffffffff164760405161044490610d0b565b60006040518083038185875af1925050503d8060008114610481576040519150601f19603f3d011682016040523d82523d6000602084013e610486565b606091505b50509050806104ca576040517f08c379a00000000000000000000000000000000000000000000000000000000081526004016104c190610d6c565b60405180910390fd5b600067ffffffffffffffff8111156104e5576104e4610d8c565b5b6040519080825280602002602001820160405280156105135781602001602082028036833780820191505090505b506000908051906020019061052992919061094e565b5050565b674563918244f4000081565b600260009054906101000a900473ffffffffffffffffffffffffffffffffffffffff1681565b60016020528060005260406000206000915090505481565b7f000000000000000000000000000000000000000000000000000000000000000073ffffffffffffffffffffffffffffffffffffffff163373ffffffffffffffffffffffffffffffffffffffff16146105fc576040517f579610db00000000000000000000000000000000000000000000000000000000815260040160405180910390fd5b60008080548060200260200160405190810160405280929190818152602001828054801561067f57602002820191906000526020600020905b8160009054906101000a900473ffffffffffffffffffffffffffffffffffffffff1673ffffffffffffffffffffffffffffffffffffffff1681526020019060010190808311610635575b5050505050905060005b8151811015610704576000600160008484815181106106ab576106aa610c33565b5b602002602001015173ffffffffffffffffffffffffffffffffffffffff1673ffffffffffffffffffffffffffffffffffffffff1681526020019081526020016000208190555080806106fc90610c91565b915050610689565b5060003373ffffffffffffffffffffffffffffffffffffffff164760405161072b90610d0b565b60006040518083038185875af1925050503d8060008114610768576040519150601f19603f3d011682016040523d82523d6000602084013e61076d565b606091505b50509050806107b1576040517f08c379a00000000000000000000000000000000000000000000000000000000081526004016107a890610d6c565b60405180910390fd5b600067ffffffffffffffff8111156107cc576107cb610d8c565b5b6040519080825280602002602001820160405280156107fa5781602001602082028036833780820191505090505b506000908051906020019061081092919061094e565b505050565b7f000000000000000000000000000000000000000000000000000000000000000081565b6000818154811061084957600080fd5b906000526020600020016000915054906101000a900473ffffffffffffffffffffffffffffffffffffffff1681565b600080610884836108ae565b9050670de0b6b3a7640000848261089b9190610dbb565b6108a59190610e44565b91505092915050565b6000808273ffffffffffffffffffffffffffffffffffffffff1663feaf968c6040518163ffffffff1660e01b815260040160a06040518083038186803b1580156108f757600080fd5b505afa15801561090b573d6000803e3d6000fd5b505050506040513d601f19601f8201168201806040525081019061092f9190610f02565b5050509150506402540be400816109469190610f7d565b915050919050565b8280548282559060005260206000209081019282156109c7579160200282015b828111156109c65782518260006101000a81548173ffffffffffffffffffffffffffffffffffffffff021916908373ffffffffffffffffffffffffffffffffffffffff1602179055509160200191906001019061096e565b5b5090506109d491906109d8565b5090565b5b808211156109f15760008160009055506001016109d9565b5090565b6000819050919050565b610a08816109f5565b82525050565b6000602082019050610a2360008301846109ff565b92915050565b600073ffffffffffffffffffffffffffffffffffffffff82169050919050565b6000819050919050565b6000610a6e610a69610a6484610a29565b610a49565b610a29565b9050919050565b6000610a8082610a53565b9050919050565b6000610a9282610a75565b9050919050565b610aa281610a87565b82525050565b6000602082019050610abd6000830184610a99565b92915050565b600080fd5b6000610ad382610a29565b9050919050565b610ae381610ac8565b8114610aee57600080fd5b50565b600081359050610b0081610ada565b92915050565b600060208284031215610b1c57610b1b610ac3565b5b6000610b2a84828501610af1565b91505092915050565b610b3c81610ac8565b82525050565b6000602082019050610b576000830184610b33565b92915050565b610b66816109f5565b8114610b7157600080fd5b50565b600081359050610b8381610b5d565b92915050565b600060208284031215610b9f57610b9e610ac3565b5b6000610bad84828501610b74565b91505092915050565b600082825260208201905092915050565b7f44696427742073656e6420656e6f756768210000000000000000000000000000600082015250565b6000610bfd601283610bb6565b9150610c0882610bc7565b602082019050919050565b60006020820190508181036000830152610c2c81610bf0565b9050919050565b7f4e487b7100000000000000000000000000000000000000000000000000000000600052603260045260246000fd5b7f4e487b7100000000000000000000000000000000000000000000000000000000600052601160045260246000fd5b6000610c9c826109f5565b91507fffffffffffffffffffffffffffffffffffffffffffffffffffffffffffffffff821415610ccf57610cce610c62565b5b600182019050919050565b600081905092915050565b50565b6000610cf5600083610cda565b9150610d0082610ce5565b600082019050919050565b6000610d1682610ce8565b9150819050919050565b7f63616c6c206661696c6564000000000000000000000000000000000000000000600082015250565b6000610d56600b83610bb6565b9150610d6182610d20565b602082019050919050565b60006020820190508181036000830152610d8581610d49565b9050919050565b7f4e487b7100000000000000000000000000000000000000000000000000000000600052604160045260246000fd5b6000610dc6826109f5565b9150610dd1836109f5565b9250817fffffffffffffffffffffffffffffffffffffffffffffffffffffffffffffffff0483118215151615610e0a57610e09610c62565b5b828202905092915050565b7f4e487b7100000000000000000000000000000000000000000000000000000000600052601260045260246000fd5b6000610e4f826109f5565b9150610e5a836109f5565b925082610e6a57610e69610e15565b5b828204905092915050565b600069ffffffffffffffffffff82169050919050565b610e9481610e75565b8114610e9f57600080fd5b50565b600081519050610eb181610e8b565b92915050565b6000819050919050565b610eca81610eb7565b8114610ed557600080fd5b50565b600081519050610ee781610ec1565b92915050565b600081519050610efc81610b5d565b92915050565b600080600080600060a08688031215610f1e57610f1d610ac3565b5b6000610f2c88828901610ea2565b9550506020610f3d88828901610ed8565b9450506040610f4e88828901610eed565b9350506060610f5f88828901610eed565b9250506080610f7088828901610ea2565b9150509295509295909350565b6000610f8882610eb7565b9150610f9383610eb7565b9250827f7fffffffffffffffffffffffffffffffffffffffffffffffffffffffffffffff0482116000841360008413161615610fd257610fd1610c62565b5b817f8000000000000000000000000000000000000000000000000000000000000000058312600084126000841316161561100f5761100e610c62565b5b827f8000000000000000000000000000000000000000000000000000000000000000058212600084136000841216161561104c5761104b610c62565b5b827f7fffffffffffffffffffffffffffffffffffffffffffffffffffffffffffffff058212600084126000841216161561108957611088610c62565b5b82820290509291505056fea2646970667358221220103aef113742ec959484155372ed638317affc36b6619d32a638b0469750385864736f6c63430008080033",
    "devdoc": {
        "author": "Manish Sahu",
        "details": "This implements price feeds as library",
        "kind": "dev",
        "methods": {},
        "title": "A contract for crowd funding",
        "version": 1
    },
    "userdoc": {
        "kind": "user",
        "methods": {},
        "notice": "This contract is to show demo for collect crowd funding",
        "version": 1
    },
    "storageLayout": {
        "storage": [
            {
                "astId": 65,
                "contract": "contracts/FundMe.sol:FundMe",
                "label": "funders",
                "offset": 0,
                "slot": "0",
                "type": "t_array(t_address)dyn_storage"
            },
            {
                "astId": 69,
                "contract": "contracts/FundMe.sol:FundMe",
                "label": "addressToAmountFunders",
                "offset": 0,
                "slot": "1",
                "type": "t_mapping(t_address,t_uint256)"
            },
            {
                "astId": 72,
                "contract": "contracts/FundMe.sol:FundMe",
                "label": "priceFeed",
                "offset": 0,
                "slot": "2",
                "type": "t_contract(AggregatorV3Interface)45"
            }
        ],
        "types": {
            "t_address": {
                "encoding": "inplace",
                "label": "address",
                "numberOfBytes": "20"
            },
            "t_array(t_address)dyn_storage": {
                "base": "t_address",
                "encoding": "dynamic_array",
                "label": "address[]",
                "numberOfBytes": "32"
            },
            "t_contract(AggregatorV3Interface)45": {
                "encoding": "inplace",
                "label": "contract AggregatorV3Interface",
                "numberOfBytes": "20"
            },
            "t_mapping(t_address,t_uint256)": {
                "encoding": "mapping",
                "key": "t_address",
                "label": "mapping(address => uint256)",
                "numberOfBytes": "32",
                "value": "t_uint256"
            },
            "t_uint256": {
                "encoding": "inplace",
                "label": "uint256",
                "numberOfBytes": "32"
            }
        }
    }
}